{
  "contractName": "SupplyChain",
  "abi": [
    {
      "constant": false,
      "inputs": [],
      "name": "forSale",
      "outputs": [],
      "payable": false,
      "stateMutability": "nonpayable",
      "type": "function",
      "signature": "0x466ccac0"
    },
    {
      "constant": false,
      "inputs": [],
      "name": "sold",
      "outputs": [],
      "payable": false,
      "stateMutability": "nonpayable",
      "type": "function",
      "signature": "0x02c7e7af"
    },
    {
      "constant": false,
      "inputs": [],
      "name": "shipped",
      "outputs": [],
      "payable": false,
      "stateMutability": "nonpayable",
      "type": "function",
      "signature": "0xba446ae9"
    },
    {
      "constant": false,
      "inputs": [],
      "name": "receive",
      "outputs": [],
      "payable": false,
      "stateMutability": "nonpayable",
      "type": "function",
      "signature": "0xa3e76c0f"
    },
    {
      "constant": true,
      "inputs": [],
      "name": "display",
      "outputs": [
        {
          "name": "",
          "type": "int256"
        }
      ],
      "payable": false,
      "stateMutability": "view",
      "type": "function",
      "signature": "0x0c1b7c1e"
    }
  ],
  "bytecode": "0x608060405273ca35b7d915458ef540ade6068dfe2f44e8fa733c6000806101000a81548173ffffffffffffffffffffffffffffffffffffffff021916908373ffffffffffffffffffffffffffffffffffffffff1602179055507314723a09acff6d2a60dcdf7aa4aff308fddc160c600160006101000a81548173ffffffffffffffffffffffffffffffffffffffff021916908373ffffffffffffffffffffffffffffffffffffffff160217905550734b0897b0513fdc7c541b6d9d7e929c4e5364d2db600260006101000a81548173ffffffffffffffffffffffffffffffffffffffff021916908373ffffffffffffffffffffffffffffffffffffffff16021790555073583031d1113ad414f02576bd6afabfb302140225600360006101000a81548173ffffffffffffffffffffffffffffffffffffffff021916908373ffffffffffffffffffffffffffffffffffffffff160217905550600060045534801561016857600080fd5b506102ea806101786000396000f3fe60806040526004361061006d576000357c0100000000000000000000000000000000000000000000000000000000900463ffffffff16806302c7e7af146100725780630c1b7c1e14610089578063466ccac0146100b4578063a3e76c0f146100cb578063ba446ae9146100e2575b600080fd5b34801561007e57600080fd5b506100876100f9565b005b34801561009557600080fd5b5061009e610168565b6040518082815260200191505060405180910390f35b3480156100c057600080fd5b506100c9610172565b005b3480156100d757600080fd5b506100e06101e0565b005b3480156100ee57600080fd5b506100f761024f565b005b600160009054906101000a900473ffffffffffffffffffffffffffffffffffffffff1673ffffffffffffffffffffffffffffffffffffffff163373ffffffffffffffffffffffffffffffffffffffff1614151561015557600080fd5b6001600460008282540192505081905550565b6000600454905090565b6000809054906101000a900473ffffffffffffffffffffffffffffffffffffffff1673ffffffffffffffffffffffffffffffffffffffff163373ffffffffffffffffffffffffffffffffffffffff161415156101cd57600080fd5b6001600460008282540192505081905550565b600360009054906101000a900473ffffffffffffffffffffffffffffffffffffffff1673ffffffffffffffffffffffffffffffffffffffff163373ffffffffffffffffffffffffffffffffffffffff1614151561023c57600080fd5b6001600460008282540192505081905550565b600260009054906101000a900473ffffffffffffffffffffffffffffffffffffffff1673ffffffffffffffffffffffffffffffffffffffff163373ffffffffffffffffffffffffffffffffffffffff161415156102ab57600080fd5b600160046000828254019250508190555056fea165627a7a723058201b4109fd494d832b97a545c2580315636fd81fe9120c71b5b54880539a1b5cc10029",
  "source": "pragma solidity ^0.5.0;\r\n\r\n\r\n\r\n\r\ncontract SupplyChain {\r\n\r\n\r\n\r\n   address add1= 0xCA35b7d915458EF540aDe6068dFe2F44E8fa733c;\r\n   address add2= 0x14723A09ACff6D2A60DcdF7aA4AFf308FDDC160C;\r\n   address add3= 0x4B0897b0513fdC7C541B6d9D7E929C4e5364D2dB;\r\n   address add4= 0x583031D1113aD414F02576BD6afaBfb302140225;\r\n\r\n\r\nint counter=0;\r\n\r\n\r\n\r\n  function forSale () public {\r\n\r\n    require(msg.sender==add1);\r\n\r\n     counter+=1;\r\n   }\r\n\r\n\r\n  function sold () public{\r\n      require(msg.sender==add2);\r\n\r\n     counter+=1;\r\n\r\n  }\r\n\r\n\r\n\r\n\r\n\r\n  function shipped () public{\r\n\r\n   require(msg.sender==add3);\r\n\r\n     counter+=1;\r\n\r\n  }\r\n\r\n\r\n\r\n\r\n  function receive () public{\r\n\r\n   require(msg.sender==add4);\r\n\r\n     counter+=1;\r\n\r\n  }\r\n\r\n\r\n\r\n   function display() view public returns(int){\r\n       return counter;\r\n   }\r\n\r\n\r\n\r\n}\r\n",
  "sourcePath": "C:/Users/Aish/Desktop/notes-node/contracts/Track.sol",
  "compiler": {
    "name": "solc",
    "version": "0.5.0+commit.1d4f565a.Emscripten.clang"
  },
  "schemaVersion": "3.0.1",
  "updatedAt": "2020-03-04T23:25:21.169Z",
  "devdoc": {
    "methods": {}
  },
  "userdoc": {
    "methods": {}
  }
}